{
  "contractName": "DynamicNFT",
  "abi": [
    {
      "inputs": [],
      "stateMutability": "nonpayable",
      "type": "constructor"
    },
    {
      "anonymous": false,
      "inputs": [
        {
          "indexed": true,
          "internalType": "address",
          "name": "account",
          "type": "address"
        },
        {
          "indexed": true,
          "internalType": "address",
          "name": "operator",
          "type": "address"
        },
        {
          "indexed": false,
          "internalType": "bool",
          "name": "approved",
          "type": "bool"
        }
      ],
      "name": "ApprovalForAll",
      "type": "event"
    },
    {
      "anonymous": false,
      "inputs": [
        {
          "indexed": true,
          "internalType": "address",
          "name": "operator",
          "type": "address"
        },
        {
          "indexed": true,
          "internalType": "address",
          "name": "from",
          "type": "address"
        },
        {
          "indexed": true,
          "internalType": "address",
          "name": "to",
          "type": "address"
        },
        {
          "indexed": false,
          "internalType": "uint256[]",
          "name": "ids",
          "type": "uint256[]"
        },
        {
          "indexed": false,
          "internalType": "uint256[]",
          "name": "values",
          "type": "uint256[]"
        }
      ],
      "name": "TransferBatch",
      "type": "event"
    },
    {
      "anonymous": false,
      "inputs": [
        {
          "indexed": true,
          "internalType": "address",
          "name": "operator",
          "type": "address"
        },
        {
          "indexed": true,
          "internalType": "address",
          "name": "from",
          "type": "address"
        },
        {
          "indexed": true,
          "internalType": "address",
          "name": "to",
          "type": "address"
        },
        {
          "indexed": false,
          "internalType": "uint256",
          "name": "id",
          "type": "uint256"
        },
        {
          "indexed": false,
          "internalType": "uint256",
          "name": "value",
          "type": "uint256"
        }
      ],
      "name": "TransferSingle",
      "type": "event"
    },
    {
      "anonymous": false,
      "inputs": [
        {
          "indexed": false,
          "internalType": "string",
          "name": "value",
          "type": "string"
        },
        {
          "indexed": true,
          "internalType": "uint256",
          "name": "id",
          "type": "uint256"
        }
      ],
      "name": "URI",
      "type": "event"
    },
    {
      "inputs": [],
      "name": "artistTokenMinted",
      "outputs": [
        {
          "internalType": "bool",
          "name": "",
          "type": "bool"
        }
      ],
      "stateMutability": "view",
      "type": "function",
      "constant": true
    },
    {
      "inputs": [
        {
          "internalType": "address",
          "name": "account",
          "type": "address"
        },
        {
          "internalType": "uint256",
          "name": "id",
          "type": "uint256"
        }
      ],
      "name": "balanceOf",
      "outputs": [
        {
          "internalType": "uint256",
          "name": "",
          "type": "uint256"
        }
      ],
      "stateMutability": "view",
      "type": "function",
      "constant": true
    },
    {
      "inputs": [
        {
          "internalType": "address[]",
          "name": "accounts",
          "type": "address[]"
        },
        {
          "internalType": "uint256[]",
          "name": "ids",
          "type": "uint256[]"
        }
      ],
      "name": "balanceOfBatch",
      "outputs": [
        {
          "internalType": "uint256[]",
          "name": "",
          "type": "uint256[]"
        }
      ],
      "stateMutability": "view",
      "type": "function",
      "constant": true
    },
    {
      "inputs": [],
      "name": "currentTokenId",
      "outputs": [
        {
          "internalType": "uint256",
          "name": "",
          "type": "uint256"
        }
      ],
      "stateMutability": "view",
      "type": "function",
      "constant": true
    },
    {
      "inputs": [],
      "name": "erc20Count",
      "outputs": [
        {
          "internalType": "uint256",
          "name": "",
          "type": "uint256"
        }
      ],
      "stateMutability": "view",
      "type": "function",
      "constant": true
    },
    {
      "inputs": [],
      "name": "erc20TokenId",
      "outputs": [
        {
          "internalType": "uint256",
          "name": "",
          "type": "uint256"
        }
      ],
      "stateMutability": "view",
      "type": "function",
      "constant": true
    },
    {
      "inputs": [
        {
          "internalType": "address",
          "name": "account",
          "type": "address"
        },
        {
          "internalType": "address",
          "name": "operator",
          "type": "address"
        }
      ],
      "name": "isApprovedForAll",
      "outputs": [
        {
          "internalType": "bool",
          "name": "",
          "type": "bool"
        }
      ],
      "stateMutability": "view",
      "type": "function",
      "constant": true
    },
    {
      "inputs": [
        {
          "internalType": "address",
          "name": "from",
          "type": "address"
        },
        {
          "internalType": "address",
          "name": "to",
          "type": "address"
        },
        {
          "internalType": "uint256[]",
          "name": "ids",
          "type": "uint256[]"
        },
        {
          "internalType": "uint256[]",
          "name": "amounts",
          "type": "uint256[]"
        },
        {
          "internalType": "bytes",
          "name": "data",
          "type": "bytes"
        }
      ],
      "name": "safeBatchTransferFrom",
      "outputs": [],
      "stateMutability": "nonpayable",
      "type": "function"
    },
    {
      "inputs": [
        {
          "internalType": "address",
          "name": "from",
          "type": "address"
        },
        {
          "internalType": "address",
          "name": "to",
          "type": "address"
        },
        {
          "internalType": "uint256",
          "name": "id",
          "type": "uint256"
        },
        {
          "internalType": "uint256",
          "name": "amount",
          "type": "uint256"
        },
        {
          "internalType": "bytes",
          "name": "data",
          "type": "bytes"
        }
      ],
      "name": "safeTransferFrom",
      "outputs": [],
      "stateMutability": "nonpayable",
      "type": "function"
    },
    {
      "inputs": [
        {
          "internalType": "address",
          "name": "operator",
          "type": "address"
        },
        {
          "internalType": "bool",
          "name": "approved",
          "type": "bool"
        }
      ],
      "name": "setApprovalForAll",
      "outputs": [],
      "stateMutability": "nonpayable",
      "type": "function"
    },
    {
      "inputs": [
        {
          "internalType": "bytes4",
          "name": "interfaceId",
          "type": "bytes4"
        }
      ],
      "name": "supportsInterface",
      "outputs": [
        {
          "internalType": "bool",
          "name": "",
          "type": "bool"
        }
      ],
      "stateMutability": "view",
      "type": "function",
      "constant": true
    },
    {
      "inputs": [
        {
          "internalType": "uint256",
          "name": "",
          "type": "uint256"
        }
      ],
      "name": "uri",
      "outputs": [
        {
          "internalType": "string",
          "name": "",
          "type": "string"
        }
      ],
      "stateMutability": "view",
      "type": "function",
      "constant": true
    },
    {
      "inputs": [],
      "name": "mintArtistToken",
      "outputs": [],
      "stateMutability": "nonpayable",
      "type": "function"
    },
    {
      "inputs": [
        {
          "internalType": "uint256",
          "name": "count",
          "type": "uint256"
        }
      ],
      "name": "mint_tokens",
      "outputs": [],
      "stateMutability": "nonpayable",
      "type": "function"
    }
  ],
  "bytecode": "0x60806040523480156200001157600080fd5b506040518060400160405280600381526020017f555249000000000000000000000000000000000000000000000000000000000081525062000059816200006f60201b60201c565b50600380819055506002600481905550620001a0565b8060029080519060200190620000879291906200008b565b5050565b82805462000099906200013b565b90600052602060002090601f016020900481019282620000bd576000855562000109565b82601f10620000d857805160ff191683800117855562000109565b8280016001018555821562000109579182015b8281111562000108578251825591602001919060010190620000eb565b5b5090506200011891906200011c565b5090565b5b80821115620001375760008160009055506001016200011d565b5090565b600060028204905060018216806200015457607f821691505b602082108114156200016b576200016a62000171565b5b50919050565b7f4e487b7100000000000000000000000000000000000000000000000000000000600052602260045260246000fd5b61306c80620001b06000396000f3fe608060405234801561001057600080fd5b50600436106100e85760003560e01c806361cea2691161008c578063e771ccc111610066578063e771ccc114610249578063e985e9c514610265578063f242432a14610295578063f5604452146102b1576100e8565b806361cea269146101f1578063a22cb4651461020f578063db0aa8731461022b576100e8565b80630e89341c116100c85780630e89341c1461016b5780631ac48aeb1461019b5780632eb2c2d6146101a55780634e1273f4146101c1576100e8565b80629a9b7b146100ed578062fdd58e1461010b57806301ffc9a71461013b575b600080fd5b6100f56102cf565b6040516101029190612673565b60405180910390f35b61012560048036038101906101209190611ecb565b6102d5565b6040516101329190612673565b60405180910390f35b61015560048036038101906101509190611f83565b61039e565b6040516101629190612456565b60405180910390f35b61018560048036038101906101809190611fdd565b610480565b6040516101929190612471565b60405180910390f35b6101a3610514565b005b6101bf60048036038101906101ba9190611d25565b61059d565b005b6101db60048036038101906101d69190611f0b565b61063e565b6040516101e891906123fd565b60405180910390f35b6101f9610757565b6040516102069190612456565b60405180910390f35b61022960048036038101906102249190611e8b565b61076a565b005b6102336108eb565b6040516102409190612673565b60405180910390f35b610263600480360381019061025e9190611fdd565b6108f1565b005b61027f600480360381019061027a9190611ce5565b610a4e565b60405161028c9190612456565b60405180910390f35b6102af60048036038101906102aa9190611df4565b610ae2565b005b6102b9610b83565b6040516102c69190612673565b60405180910390f35b60035481565b60008073ffffffffffffffffffffffffffffffffffffffff168373ffffffffffffffffffffffffffffffffffffffff161415610346576040517f08c379a000000000000000000000000000000000000000000000000000000000815260040161033d906124d3565b60405180910390fd5b60008083815260200190815260200160002060008473ffffffffffffffffffffffffffffffffffffffff1673ffffffffffffffffffffffffffffffffffffffff16815260200190815260200160002054905092915050565b60007fd9b67a26000000000000000000000000000000000000000000000000000000007bffffffffffffffffffffffffffffffffffffffffffffffffffffffff1916827bffffffffffffffffffffffffffffffffffffffffffffffffffffffff1916148061046957507f0e89341c000000000000000000000000000000000000000000000000000000007bffffffffffffffffffffffffffffffffffffffffffffffffffffffff1916827bffffffffffffffffffffffffffffffffffffffffffffffffffffffff1916145b80610479575061047882610b89565b5b9050919050565b60606002805461048f906128e2565b80601f01602080910402602001604051908101604052809291908181526020018280546104bb906128e2565b80156105085780601f106104dd57610100808354040283529160200191610508565b820191906000526020600020905b8154815290600101906020018083116104eb57829003601f168201915b50505050509050919050565b600660009054906101000a900460ff1615610564576040517f08c379a000000000000000000000000000000000000000000000000000000000815260040161055b90612653565b60405180910390fd5b6105803360018060405180602001604052806000815250610bf3565b6001600660006101000a81548160ff021916908315150217905550565b6105a5610d89565b73ffffffffffffffffffffffffffffffffffffffff168573ffffffffffffffffffffffffffffffffffffffff1614806105eb57506105ea856105e5610d89565b610a4e565b5b61062a576040517f08c379a000000000000000000000000000000000000000000000000000000000815260040161062190612553565b60405180910390fd5b6106378585858585610d91565b5050505050565b60608151835114610684576040517f08c379a000000000000000000000000000000000000000000000000000000000815260040161067b906125f3565b60405180910390fd5b6000835167ffffffffffffffff8111156106a1576106a0612a1b565b5b6040519080825280602002602001820160405280156106cf5781602001602082028036833780820191505090505b50905060005b845181101561074c5761071c8582815181106106f4576106f36129ec565b5b602002602001015185838151811061070f5761070e6129ec565b5b60200260200101516102d5565b82828151811061072f5761072e6129ec565b5b6020026020010181815250508061074590612945565b90506106d5565b508091505092915050565b600660009054906101000a900460ff1681565b8173ffffffffffffffffffffffffffffffffffffffff16610789610d89565b73ffffffffffffffffffffffffffffffffffffffff1614156107e0576040517f08c379a00000000000000000000000000000000000000000000000000000000081526004016107d7906125d3565b60405180910390fd5b80600160006107ed610d89565b73ffffffffffffffffffffffffffffffffffffffff1673ffffffffffffffffffffffffffffffffffffffff16815260200190815260200160002060008473ffffffffffffffffffffffffffffffffffffffff1673ffffffffffffffffffffffffffffffffffffffff16815260200190815260200160002060006101000a81548160ff0219169083151502179055508173ffffffffffffffffffffffffffffffffffffffff1661089a610d89565b73ffffffffffffffffffffffffffffffffffffffff167f17307eab39ab6107e8899845ad3d59bd9653f200f220920489ca2b5937696c31836040516108df9190612456565b60405180910390a35050565b60045481565b600660009054906101000a900460ff16610940576040517f08c379a0000000000000000000000000000000000000000000000000000000008152600401610937906125b3565b60405180910390fd5b6032811115610984576040517f08c379a000000000000000000000000000000000000000000000000000000000815260040161097b90612573565b60405180910390fd5b806005600082825461099691906127d6565b9250508190555061271060055411156109e4576040517f08c379a00000000000000000000000000000000000000000000000000000000081526004016109db906124f3565b60405180910390fd5b610a01336004548360405180602001604052806000815250610bf3565b606080610a0d836110a5565b8092508193505050610a30338383604051806020016040528060008152506111cd565b8260056000828254610a4291906127d6565b92505081905550505050565b6000600160008473ffffffffffffffffffffffffffffffffffffffff1673ffffffffffffffffffffffffffffffffffffffff16815260200190815260200160002060008373ffffffffffffffffffffffffffffffffffffffff1673ffffffffffffffffffffffffffffffffffffffff16815260200190815260200160002060009054906101000a900460ff16905092915050565b610aea610d89565b73ffffffffffffffffffffffffffffffffffffffff168573ffffffffffffffffffffffffffffffffffffffff161480610b305750610b2f85610b2a610d89565b610a4e565b5b610b6f576040517f08c379a0000000000000000000000000000000000000000000000000000000008152600401610b6690612513565b60405180910390fd5b610b7c85858585856113eb565b5050505050565b60055481565b60007f01ffc9a7000000000000000000000000000000000000000000000000000000007bffffffffffffffffffffffffffffffffffffffffffffffffffffffff1916827bffffffffffffffffffffffffffffffffffffffffffffffffffffffff1916149050919050565b600073ffffffffffffffffffffffffffffffffffffffff168473ffffffffffffffffffffffffffffffffffffffff161415610c63576040517f08c379a0000000000000000000000000000000000000000000000000000000008152600401610c5a90612633565b60405180910390fd5b6000610c6d610d89565b9050610c8e81600087610c7f8861166d565b610c888861166d565b876116e7565b8260008086815260200190815260200160002060008773ffffffffffffffffffffffffffffffffffffffff1673ffffffffffffffffffffffffffffffffffffffff1681526020019081526020016000206000828254610ced91906127d6565b925050819055508473ffffffffffffffffffffffffffffffffffffffff16600073ffffffffffffffffffffffffffffffffffffffff168273ffffffffffffffffffffffffffffffffffffffff167fc3d58168c5ae7397731d063d5bbf3d657854427343f4c083240f7aacaa2d0f628787604051610d6b92919061268e565b60405180910390a4610d82816000878787876116ef565b5050505050565b600033905090565b8151835114610dd5576040517f08c379a0000000000000000000000000000000000000000000000000000000008152600401610dcc90612613565b60405180910390fd5b600073ffffffffffffffffffffffffffffffffffffffff168473ffffffffffffffffffffffffffffffffffffffff161415610e45576040517f08c379a0000000000000000000000000000000000000000000000000000000008152600401610e3c90612533565b60405180910390fd5b6000610e4f610d89565b9050610e5f8187878787876116e7565b60005b8451811015611010576000858281518110610e8057610e7f6129ec565b5b602002602001015190506000858381518110610e9f57610e9e6129ec565b5b60200260200101519050600080600084815260200190815260200160002060008b73ffffffffffffffffffffffffffffffffffffffff1673ffffffffffffffffffffffffffffffffffffffff16815260200190815260200160002054905081811015610f40576040517f08c379a0000000000000000000000000000000000000000000000000000000008152600401610f3790612593565b60405180910390fd5b81810360008085815260200190815260200160002060008c73ffffffffffffffffffffffffffffffffffffffff1673ffffffffffffffffffffffffffffffffffffffff168152602001908152602001600020819055508160008085815260200190815260200160002060008b73ffffffffffffffffffffffffffffffffffffffff1673ffffffffffffffffffffffffffffffffffffffff1681526020019081526020016000206000828254610ff591906127d6565b925050819055505050508061100990612945565b9050610e62565b508473ffffffffffffffffffffffffffffffffffffffff168673ffffffffffffffffffffffffffffffffffffffff168273ffffffffffffffffffffffffffffffffffffffff167f4a39dc06d4c0dbc64b70af90fd698a233a518aa5d07e595d983b8c0526c8f7fb878760405161108792919061241f565b60405180910390a461109d8187878787876118d6565b505050505050565b60608060008367ffffffffffffffff8111156110c4576110c3612a1b565b5b6040519080825280602002602001820160405280156110f25781602001602082028036833780820191505090505b50905060008467ffffffffffffffff81111561111157611110612a1b565b5b60405190808252806020026020018201604052801561113f5781602001602082028036833780820191505090505b5090506000600354905060005b868110156111b75781848281518110611168576111676129ec565b5b6020026020010181815250506001838281518110611189576111886129ec565b5b6020026020010181815250506001826111a291906127d6565b915080806111af90612945565b91505061114c565b5080600381905550828294509450505050915091565b600073ffffffffffffffffffffffffffffffffffffffff168473ffffffffffffffffffffffffffffffffffffffff16141561123d576040517f08c379a000000000000000000000000000000000000000000000000000000000815260040161123490612633565b60405180910390fd5b8151835114611281576040517f08c379a000000000000000000000000000000000000000000000000000000000815260040161127890612613565b60405180910390fd5b600061128b610d89565b905061129c816000878787876116e7565b60005b8451811015611355578381815181106112bb576112ba6129ec565b5b60200260200101516000808784815181106112d9576112d86129ec565b5b6020026020010151815260200190815260200160002060008873ffffffffffffffffffffffffffffffffffffffff1673ffffffffffffffffffffffffffffffffffffffff168152602001908152602001600020600082825461133b91906127d6565b92505081905550808061134d90612945565b91505061129f565b508473ffffffffffffffffffffffffffffffffffffffff16600073ffffffffffffffffffffffffffffffffffffffff168273ffffffffffffffffffffffffffffffffffffffff167f4a39dc06d4c0dbc64b70af90fd698a233a518aa5d07e595d983b8c0526c8f7fb87876040516113cd92919061241f565b60405180910390a46113e4816000878787876118d6565b5050505050565b600073ffffffffffffffffffffffffffffffffffffffff168473ffffffffffffffffffffffffffffffffffffffff16141561145b576040517f08c379a000000000000000000000000000000000000000000000000000000000815260040161145290612533565b60405180910390fd5b6000611465610d89565b90506114858187876114768861166d565b61147f8861166d565b876116e7565b600080600086815260200190815260200160002060008873ffffffffffffffffffffffffffffffffffffffff1673ffffffffffffffffffffffffffffffffffffffff1681526020019081526020016000205490508381101561151c576040517f08c379a000000000000000000000000000000000000000000000000000000000815260040161151390612593565b60405180910390fd5b83810360008087815260200190815260200160002060008973ffffffffffffffffffffffffffffffffffffffff1673ffffffffffffffffffffffffffffffffffffffff168152602001908152602001600020819055508360008087815260200190815260200160002060008873ffffffffffffffffffffffffffffffffffffffff1673ffffffffffffffffffffffffffffffffffffffff16815260200190815260200160002060008282546115d191906127d6565b925050819055508573ffffffffffffffffffffffffffffffffffffffff168773ffffffffffffffffffffffffffffffffffffffff168373ffffffffffffffffffffffffffffffffffffffff167fc3d58168c5ae7397731d063d5bbf3d657854427343f4c083240f7aacaa2d0f62888860405161164e92919061268e565b60405180910390a46116648288888888886116ef565b50505050505050565b60606000600167ffffffffffffffff81111561168c5761168b612a1b565b5b6040519080825280602002602001820160405280156116ba5781602001602082028036833780820191505090505b50905082816000815181106116d2576116d16129ec565b5b60200260200101818152505080915050919050565b505050505050565b61170e8473ffffffffffffffffffffffffffffffffffffffff16611abd565b156118ce578373ffffffffffffffffffffffffffffffffffffffff1663f23a6e6187878686866040518663ffffffff1660e01b81526004016117549594939291906123a3565b602060405180830381600087803b15801561176e57600080fd5b505af192505050801561179f57506040513d601f19601f8201168201806040525081019061179c9190611fb0565b60015b611845576117ab612a4a565b806308c379a0141561180857506117c0612f44565b806117cb575061180a565b806040517f08c379a00000000000000000000000000000000000000000000000000000000081526004016117ff9190612471565b60405180910390fd5b505b6040517f08c379a000000000000000000000000000000000000000000000000000000000815260040161183c90612493565b60405180910390fd5b63f23a6e6160e01b7bffffffffffffffffffffffffffffffffffffffffffffffffffffffff1916817bffffffffffffffffffffffffffffffffffffffffffffffffffffffff1916146118cc576040517f08c379a00000000000000000000000000000000000000000000000000000000081526004016118c3906124b3565b60405180910390fd5b505b505050505050565b6118f58473ffffffffffffffffffffffffffffffffffffffff16611abd565b15611ab5578373ffffffffffffffffffffffffffffffffffffffff1663bc197c8187878686866040518663ffffffff1660e01b815260040161193b95949392919061233b565b602060405180830381600087803b15801561195557600080fd5b505af192505050801561198657506040513d601f19601f820116820180604052508101906119839190611fb0565b60015b611a2c57611992612a4a565b806308c379a014156119ef57506119a7612f44565b806119b257506119f1565b806040517f08c379a00000000000000000000000000000000000000000000000000000000081526004016119e69190612471565b60405180910390fd5b505b6040517f08c379a0000000000000000000000000000000000000000000000000000000008152600401611a2390612493565b60405180910390fd5b63bc197c8160e01b7bffffffffffffffffffffffffffffffffffffffffffffffffffffffff1916817bffffffffffffffffffffffffffffffffffffffffffffffffffffffff191614611ab3576040517f08c379a0000000000000000000000000000000000000000000000000000000008152600401611aaa906124b3565b60405180910390fd5b505b505050505050565b600080823b905060008111915050919050565b6000611ae3611ade846126dc565b6126b7565b90508083825260208201905082856020860282011115611b0657611b05612a71565b5b60005b85811015611b365781611b1c8882611bf2565b845260208401935060208301925050600181019050611b09565b5050509392505050565b6000611b53611b4e84612708565b6126b7565b90508083825260208201905082856020860282011115611b7657611b75612a71565b5b60005b85811015611ba65781611b8c8882611cd0565b845260208401935060208301925050600181019050611b79565b5050509392505050565b6000611bc3611bbe84612734565b6126b7565b905082815260208101848484011115611bdf57611bde612a76565b5b611bea8482856128a0565b509392505050565b600081359050611c0181612fda565b92915050565b600082601f830112611c1c57611c1b612a6c565b5b8135611c2c848260208601611ad0565b91505092915050565b600082601f830112611c4a57611c49612a6c565b5b8135611c5a848260208601611b40565b91505092915050565b600081359050611c7281612ff1565b92915050565b600081359050611c8781613008565b92915050565b600081519050611c9c81613008565b92915050565b600082601f830112611cb757611cb6612a6c565b5b8135611cc7848260208601611bb0565b91505092915050565b600081359050611cdf8161301f565b92915050565b60008060408385031215611cfc57611cfb612a80565b5b6000611d0a85828601611bf2565b9250506020611d1b85828601611bf2565b9150509250929050565b600080600080600060a08688031215611d4157611d40612a80565b5b6000611d4f88828901611bf2565b9550506020611d6088828901611bf2565b945050604086013567ffffffffffffffff811115611d8157611d80612a7b565b5b611d8d88828901611c35565b935050606086013567ffffffffffffffff811115611dae57611dad612a7b565b5b611dba88828901611c35565b925050608086013567ffffffffffffffff811115611ddb57611dda612a7b565b5b611de788828901611ca2565b9150509295509295909350565b600080600080600060a08688031215611e1057611e0f612a80565b5b6000611e1e88828901611bf2565b9550506020611e2f88828901611bf2565b9450506040611e4088828901611cd0565b9350506060611e5188828901611cd0565b925050608086013567ffffffffffffffff811115611e7257611e71612a7b565b5b611e7e88828901611ca2565b9150509295509295909350565b60008060408385031215611ea257611ea1612a80565b5b6000611eb085828601611bf2565b9250506020611ec185828601611c63565b9150509250929050565b60008060408385031215611ee257611ee1612a80565b5b6000611ef085828601611bf2565b9250506020611f0185828601611cd0565b9150509250929050565b60008060408385031215611f2257611f21612a80565b5b600083013567ffffffffffffffff811115611f4057611f3f612a7b565b5b611f4c85828601611c07565b925050602083013567ffffffffffffffff811115611f6d57611f6c612a7b565b5b611f7985828601611c35565b9150509250929050565b600060208284031215611f9957611f98612a80565b5b6000611fa784828501611c78565b91505092915050565b600060208284031215611fc657611fc5612a80565b5b6000611fd484828501611c8d565b91505092915050565b600060208284031215611ff357611ff2612a80565b5b600061200184828501611cd0565b91505092915050565b6000612016838361231d565b60208301905092915050565b61202b8161282c565b82525050565b600061203c82612775565b61204681856127a3565b935061205183612765565b8060005b83811015612082578151612069888261200a565b975061207483612796565b925050600181019050612055565b5085935050505092915050565b6120988161283e565b82525050565b60006120a982612780565b6120b381856127b4565b93506120c38185602086016128af565b6120cc81612a85565b840191505092915050565b60006120e28261278b565b6120ec81856127c5565b93506120fc8185602086016128af565b61210581612a85565b840191505092915050565b600061211d6034836127c5565b915061212882612aa3565b604082019050919050565b60006121406028836127c5565b915061214b82612af2565b604082019050919050565b6000612163602b836127c5565b915061216e82612b41565b604082019050919050565b6000612186603a836127c5565b915061219182612b90565b604082019050919050565b60006121a96029836127c5565b91506121b482612bdf565b604082019050919050565b60006121cc6025836127c5565b91506121d782612c2e565b604082019050919050565b60006121ef6032836127c5565b91506121fa82612c7d565b604082019050919050565b6000612212602f836127c5565b915061221d82612ccc565b604082019050919050565b6000612235602a836127c5565b915061224082612d1b565b604082019050919050565b60006122586034836127c5565b915061226382612d6a565b604082019050919050565b600061227b6029836127c5565b915061228682612db9565b604082019050919050565b600061229e6029836127c5565b91506122a982612e08565b604082019050919050565b60006122c16028836127c5565b91506122cc82612e57565b604082019050919050565b60006122e46021836127c5565b91506122ef82612ea6565b604082019050919050565b60006123076033836127c5565b915061231282612ef5565b604082019050919050565b61232681612896565b82525050565b61233581612896565b82525050565b600060a0820190506123506000830188612022565b61235d6020830187612022565b818103604083015261236f8186612031565b905081810360608301526123838185612031565b90508181036080830152612397818461209e565b90509695505050505050565b600060a0820190506123b86000830188612022565b6123c56020830187612022565b6123d2604083018661232c565b6123df606083018561232c565b81810360808301526123f1818461209e565b90509695505050505050565b600060208201905081810360008301526124178184612031565b905092915050565b600060408201905081810360008301526124398185612031565b9050818103602083015261244d8184612031565b90509392505050565b600060208201905061246b600083018461208f565b92915050565b6000602082019050818103600083015261248b81846120d7565b905092915050565b600060208201905081810360008301526124ac81612110565b9050919050565b600060208201905081810360008301526124cc81612133565b9050919050565b600060208201905081810360008301526124ec81612156565b9050919050565b6000602082019050818103600083015261250c81612179565b9050919050565b6000602082019050818103600083015261252c8161219c565b9050919050565b6000602082019050818103600083015261254c816121bf565b9050919050565b6000602082019050818103600083015261256c816121e2565b9050919050565b6000602082019050818103600083015261258c81612205565b9050919050565b600060208201905081810360008301526125ac81612228565b9050919050565b600060208201905081810360008301526125cc8161224b565b9050919050565b600060208201905081810360008301526125ec8161226e565b9050919050565b6000602082019050818103600083015261260c81612291565b9050919050565b6000602082019050818103600083015261262c816122b4565b9050919050565b6000602082019050818103600083015261264c816122d7565b9050919050565b6000602082019050818103600083015261266c816122fa565b9050919050565b6000602082019050612688600083018461232c565b92915050565b60006040820190506126a3600083018561232c565b6126b0602083018461232c565b9392505050565b60006126c16126d2565b90506126cd8282612914565b919050565b6000604051905090565b600067ffffffffffffffff8211156126f7576126f6612a1b565b5b602082029050602081019050919050565b600067ffffffffffffffff82111561272357612722612a1b565b5b602082029050602081019050919050565b600067ffffffffffffffff82111561274f5761274e612a1b565b5b61275882612a85565b9050602081019050919050565b6000819050602082019050919050565b600081519050919050565b600081519050919050565b600081519050919050565b6000602082019050919050565b600082825260208201905092915050565b600082825260208201905092915050565b600082825260208201905092915050565b60006127e182612896565b91506127ec83612896565b9250827fffffffffffffffffffffffffffffffffffffffffffffffffffffffffffffffff038211156128215761282061298e565b5b828201905092915050565b600061283782612876565b9050919050565b60008115159050919050565b60007fffffffff0000000000000000000000000000000000000000000000000000000082169050919050565b600073ffffffffffffffffffffffffffffffffffffffff82169050919050565b6000819050919050565b82818337600083830152505050565b60005b838110156128cd5780820151818401526020810190506128b2565b838111156128dc576000848401525b50505050565b600060028204905060018216806128fa57607f821691505b6020821081141561290e5761290d6129bd565b5b50919050565b61291d82612a85565b810181811067ffffffffffffffff8211171561293c5761293b612a1b565b5b80604052505050565b600061295082612896565b91507fffffffffffffffffffffffffffffffffffffffffffffffffffffffffffffffff8214156129835761298261298e565b5b600182019050919050565b7f4e487b7100000000000000000000000000000000000000000000000000000000600052601160045260246000fd5b7f4e487b7100000000000000000000000000000000000000000000000000000000600052602260045260246000fd5b7f4e487b7100000000000000000000000000000000000000000000000000000000600052603260045260246000fd5b7f4e487b7100000000000000000000000000000000000000000000000000000000600052604160045260246000fd5b600060033d1115612a695760046000803e612a66600051612a96565b90505b90565b600080fd5b600080fd5b600080fd5b600080fd5b600080fd5b6000601f19601f8301169050919050565b60008160e01c9050919050565b7f455243313135353a207472616e7366657220746f206e6f6e204552433131353560008201527f526563656976657220696d706c656d656e746572000000000000000000000000602082015250565b7f455243313135353a204552433131353552656365697665722072656a6563746560008201527f6420746f6b656e73000000000000000000000000000000000000000000000000602082015250565b7f455243313135353a2062616c616e636520717565727920666f7220746865207a60008201527f65726f2061646472657373000000000000000000000000000000000000000000602082015250565b7f44796e616d6963204e4654203a20596f752063616e206f6e6c79206d696e742060008201527f61206d6178696d756d206f6620313030303020746f6b656e732e000000000000602082015250565b7f455243313135353a2063616c6c6572206973206e6f74206f776e6572206e6f7260008201527f20617070726f7665640000000000000000000000000000000000000000000000602082015250565b7f455243313135353a207472616e7366657220746f20746865207a65726f20616460008201527f6472657373000000000000000000000000000000000000000000000000000000602082015250565b7f455243313135353a207472616e736665722063616c6c6572206973206e6f742060008201527f6f776e6572206e6f7220617070726f7665640000000000000000000000000000602082015250565b7f44796e616d6963204e4654203a20596f752063616e206d696e74206f6e6c792060008201527f7570746f2035306d20746f6b656e730000000000000000000000000000000000602082015250565b7f455243313135353a20696e73756666696369656e742062616c616e636520666f60008201527f72207472616e7366657200000000000000000000000000000000000000000000602082015250565b7f44796e616d6963204e4654203a2041727469737420546f6b656e206e6565647360008201527f20746f206265206d696e7465642066697273742e000000000000000000000000602082015250565b7f455243313135353a2073657474696e6720617070726f76616c2073746174757360008201527f20666f722073656c660000000000000000000000000000000000000000000000602082015250565b7f455243313135353a206163636f756e747320616e6420696473206c656e67746860008201527f206d69736d617463680000000000000000000000000000000000000000000000602082015250565b7f455243313135353a2069647320616e6420616d6f756e7473206c656e6774682060008201527f6d69736d61746368000000000000000000000000000000000000000000000000602082015250565b7f455243313135353a206d696e7420746f20746865207a65726f2061646472657360008201527f7300000000000000000000000000000000000000000000000000000000000000602082015250565b7f44796e616d6963204e4654203a2041727469737420546f6b656e20686173206160008201527f6c7265616479206265656e206d696e7465642e00000000000000000000000000602082015250565b600060443d1015612f5457612fd7565b612f5c6126d2565b60043d036004823e80513d602482011167ffffffffffffffff82111715612f84575050612fd7565b808201805167ffffffffffffffff811115612fa25750505050612fd7565b80602083010160043d038501811115612fbf575050505050612fd7565b612fce82602001850186612914565b82955050505050505b90565b612fe38161282c565b8114612fee57600080fd5b50565b612ffa8161283e565b811461300557600080fd5b50565b6130118161284a565b811461301c57600080fd5b50565b61302881612896565b811461303357600080fd5b5056fea2646970667358221220cb4faddd90bf76b0c9d4265b9a9d8ff8009c124809592e262fe5b5c787a03a9b64736f6c63430008060033",
  "immutableReferences": {},
  "source": "// SPDX-License-Identifier: MIT\npragma solidity 0.8.6;\n\nimport \"@openzeppelin/contracts/token/ERC1155/ERC1155.sol\";\n\ncontract DynamicNFT is ERC1155{\n    \n    uint public currentTokenId;\n    uint public erc20TokenId;\n    uint public erc20Count;\n    bool public artistTokenMinted;\n    \n    constructor() ERC1155(\"URI\"){\n        currentTokenId = 3;\n        erc20TokenId = 2;\n    }\n    \n    function mintArtistToken() public {\n        require(!artistTokenMinted, \"Dynamic NFT : Artist Token has already been minted.\");\n        _mint(msg.sender, 1, 1, \"\");\n        artistTokenMinted = true;\n    }\n    \n    function mint_tokens(uint count) public {\n        require(artistTokenMinted, \"Dynamic NFT : Artist Token needs to be minted first.\");\n        require(count <= 50, \"Dynamic NFT : You can mint only upto 50m tokens\");\n        erc20Count += count;\n        require(erc20Count <= 10000, \"Dynamic NFT : You can only mint a maximum of 10000 tokens.\");\n        _mint(msg.sender, erc20TokenId, count, \"\");\n        uint[] memory nftIds;\n        uint[] memory nftCountsPerId;\n        (nftIds, nftCountsPerId) = generateIds(count);\n        _mintBatch(msg.sender, nftIds, nftCountsPerId, \"\");\n        erc20Count += count;\n    }\n    \n    function generateIds(uint count) private returns (uint[] memory, uint[] memory){\n        uint[] memory nftIds = new uint[](count);\n        uint[] memory nftIdValues = new uint[](count);\n        uint j=currentTokenId;\n        for (uint i=0; i < count; i++){\n            nftIds[i] = j;\n            nftIdValues[i] = 1;\n            j+=1;\n        }\n        currentTokenId = j;\n        return(nftIds, nftIdValues);\n    }\n    \n}",
  "sourcePath": "/Users/varma/Desktop/Blockchain/github-projects/DynamicArtistToken/contracts/DynamicNFT_V1.sol",
  "compiler": {
    "name": "solc",
    "version": "0.8.6+commit.11564f7e.Emscripten.clang"
  },
  "schemaVersion": "3.4.1",
  "updatedAt": "2021-10-06T10:15:33.368Z",
  "networkType": "ethereum",
  "devdoc": {
    "kind": "dev",
    "methods": {
      "balanceOf(address,uint256)": {
        "details": "See {IERC1155-balanceOf}. Requirements: - `account` cannot be the zero address."
      },
      "balanceOfBatch(address[],uint256[])": {
        "details": "See {IERC1155-balanceOfBatch}. Requirements: - `accounts` and `ids` must have the same length."
      },
      "isApprovedForAll(address,address)": {
        "details": "See {IERC1155-isApprovedForAll}."
      },
      "safeBatchTransferFrom(address,address,uint256[],uint256[],bytes)": {
        "details": "See {IERC1155-safeBatchTransferFrom}."
      },
      "safeTransferFrom(address,address,uint256,uint256,bytes)": {
        "details": "See {IERC1155-safeTransferFrom}."
      },
      "setApprovalForAll(address,bool)": {
        "details": "See {IERC1155-setApprovalForAll}."
      },
      "supportsInterface(bytes4)": {
        "details": "See {IERC165-supportsInterface}."
      },
      "uri(uint256)": {
        "details": "See {IERC1155MetadataURI-uri}. This implementation returns the same URI for *all* token types. It relies on the token type ID substitution mechanism https://eips.ethereum.org/EIPS/eip-1155#metadata[defined in the EIP]. Clients calling this function must replace the `\\{id\\}` substring with the actual token type ID."
      }
    },
    "version": 1
  },
  "userdoc": {
    "kind": "user",
    "methods": {},
    "version": 1
  }
}